{
  "_format": "hh-sol-artifact-1",
  "contractName": "MyToken",
  "sourceName": "contracts/MyToken.sol",
  "abi": [
    {
      "inputs": [
        {
          "internalType": "uint256",
          "name": "initialSupply",
          "type": "uint256"
        }
      ],
      "stateMutability": "nonpayable",
      "type": "constructor"
    },
    {
      "inputs": [
        {
          "internalType": "address",
          "name": "spender",
          "type": "address"
        },
        {
          "internalType": "uint256",
          "name": "allowance",
          "type": "uint256"
        },
        {
          "internalType": "uint256",
          "name": "needed",
          "type": "uint256"
        }
      ],
      "name": "ERC20InsufficientAllowance",
      "type": "error"
    },
    {
      "inputs": [
        {
          "internalType": "address",
          "name": "sender",
          "type": "address"
        },
        {
          "internalType": "uint256",
          "name": "balance",
          "type": "uint256"
        },
        {
          "internalType": "uint256",
          "name": "needed",
          "type": "uint256"
        }
      ],
      "name": "ERC20InsufficientBalance",
      "type": "error"
    },
    {
      "inputs": [
        {
          "internalType": "address",
          "name": "approver",
          "type": "address"
        }
      ],
      "name": "ERC20InvalidApprover",
      "type": "error"
    },
    {
      "inputs": [
        {
          "internalType": "address",
          "name": "receiver",
          "type": "address"
        }
      ],
      "name": "ERC20InvalidReceiver",
      "type": "error"
    },
    {
      "inputs": [
        {
          "internalType": "address",
          "name": "sender",
          "type": "address"
        }
      ],
      "name": "ERC20InvalidSender",
      "type": "error"
    },
    {
      "inputs": [
        {
          "internalType": "address",
          "name": "spender",
          "type": "address"
        }
      ],
      "name": "ERC20InvalidSpender",
      "type": "error"
    },
    {
      "anonymous": false,
      "inputs": [
        {
          "indexed": true,
          "internalType": "address",
          "name": "owner",
          "type": "address"
        },
        {
          "indexed": true,
          "internalType": "address",
          "name": "spender",
          "type": "address"
        },
        {
          "indexed": false,
          "internalType": "uint256",
          "name": "value",
          "type": "uint256"
        }
      ],
      "name": "Approval",
      "type": "event"
    },
    {
      "anonymous": false,
      "inputs": [
        {
          "indexed": false,
          "internalType": "string",
          "name": "message",
          "type": "string"
        }
      ],
      "name": "Echo",
      "type": "event"
    },
    {
      "anonymous": false,
      "inputs": [
        {
          "indexed": true,
          "internalType": "address",
          "name": "from",
          "type": "address"
        },
        {
          "indexed": true,
          "internalType": "address",
          "name": "to",
          "type": "address"
        },
        {
          "indexed": false,
          "internalType": "uint256",
          "name": "value",
          "type": "uint256"
        }
      ],
      "name": "Transfer",
      "type": "event"
    },
    {
      "inputs": [
        {
          "internalType": "address",
          "name": "owner",
          "type": "address"
        },
        {
          "internalType": "address",
          "name": "spender",
          "type": "address"
        }
      ],
      "name": "allowance",
      "outputs": [
        {
          "internalType": "uint256",
          "name": "",
          "type": "uint256"
        }
      ],
      "stateMutability": "view",
      "type": "function"
    },
    {
      "inputs": [
        {
          "internalType": "address",
          "name": "spender",
          "type": "address"
        },
        {
          "internalType": "uint256",
          "name": "value",
          "type": "uint256"
        }
      ],
      "name": "approve",
      "outputs": [
        {
          "internalType": "bool",
          "name": "",
          "type": "bool"
        }
      ],
      "stateMutability": "nonpayable",
      "type": "function"
    },
    {
      "inputs": [
        {
          "internalType": "address",
          "name": "account",
          "type": "address"
        }
      ],
      "name": "balanceOf",
      "outputs": [
        {
          "internalType": "uint256",
          "name": "",
          "type": "uint256"
        }
      ],
      "stateMutability": "view",
      "type": "function"
    },
    {
      "inputs": [],
      "name": "decimals",
      "outputs": [
        {
          "internalType": "uint8",
          "name": "",
          "type": "uint8"
        }
      ],
      "stateMutability": "view",
      "type": "function"
    },
    {
      "inputs": [
        {
          "internalType": "string",
          "name": "message",
          "type": "string"
        }
      ],
      "name": "echo",
      "outputs": [],
      "stateMutability": "nonpayable",
      "type": "function"
    },
    {
      "inputs": [],
      "name": "name",
      "outputs": [
        {
          "internalType": "string",
          "name": "",
          "type": "string"
        }
      ],
      "stateMutability": "view",
      "type": "function"
    },
    {
      "inputs": [],
      "name": "symbol",
      "outputs": [
        {
          "internalType": "string",
          "name": "",
          "type": "string"
        }
      ],
      "stateMutability": "view",
      "type": "function"
    },
    {
      "inputs": [],
      "name": "totalSupply",
      "outputs": [
        {
          "internalType": "uint256",
          "name": "",
          "type": "uint256"
        }
      ],
      "stateMutability": "view",
      "type": "function"
    },
    {
      "inputs": [
        {
          "internalType": "address",
          "name": "to",
          "type": "address"
        },
        {
          "internalType": "uint256",
          "name": "value",
          "type": "uint256"
        }
      ],
      "name": "transfer",
      "outputs": [
        {
          "internalType": "bool",
          "name": "",
          "type": "bool"
        }
      ],
      "stateMutability": "nonpayable",
      "type": "function"
    },
    {
      "inputs": [
        {
          "internalType": "address",
          "name": "from",
          "type": "address"
        },
        {
          "internalType": "address",
          "name": "to",
          "type": "address"
        },
        {
          "internalType": "uint256",
          "name": "value",
          "type": "uint256"
        }
      ],
      "name": "transferFrom",
      "outputs": [
        {
          "internalType": "bool",
          "name": "",
          "type": "bool"
        }
      ],
      "stateMutability": "nonpayable",
      "type": "function"
    }
  ],
  "bytecode": "0x608060405234801561001057600080fd5b506040516119f23803806119f2833981810160405281019061003291906103ee565b6040518060400160405280600781526020017f4d79546f6b656e000000000000000000000000000000000000000000000000008152506040518060400160405280600381526020017f4d544b000000000000000000000000000000000000000000000000000000000081525081600390816100ad9190610661565b5080600490816100bd9190610661565b5050506100f7336100d26100fd60201b60201c565b60ff16600a6100e19190610895565b836100ec91906108e0565b61010660201b60201c565b50610a13565b60006012905090565b600073ffffffffffffffffffffffffffffffffffffffff168273ffffffffffffffffffffffffffffffffffffffff16036101785760006040517fec442f0500000000000000000000000000000000000000000000000000000000815260040161016f9190610963565b60405180910390fd5b61018a6000838361018e60201b60201c565b5050565b600073ffffffffffffffffffffffffffffffffffffffff168373ffffffffffffffffffffffffffffffffffffffff16036101e05780600260008282546101d4919061097e565b925050819055506102b3565b60008060008573ffffffffffffffffffffffffffffffffffffffff1673ffffffffffffffffffffffffffffffffffffffff1681526020019081526020016000205490508181101561026c578381836040517fe450d38c000000000000000000000000000000000000000000000000000000008152600401610263939291906109c1565b60405180910390fd5b8181036000808673ffffffffffffffffffffffffffffffffffffffff1673ffffffffffffffffffffffffffffffffffffffff16815260200190815260200160002081905550505b600073ffffffffffffffffffffffffffffffffffffffff168273ffffffffffffffffffffffffffffffffffffffff16036102fc5780600260008282540392505081905550610349565b806000808473ffffffffffffffffffffffffffffffffffffffff1673ffffffffffffffffffffffffffffffffffffffff168152602001908152602001600020600082825401925050819055505b8173ffffffffffffffffffffffffffffffffffffffff168373ffffffffffffffffffffffffffffffffffffffff167fddf252ad1be2c89b69c2b068fc378daa952ba7f163c4a11628f55a4df523b3ef836040516103a691906109f8565b60405180910390a3505050565b600080fd5b6000819050919050565b6103cb816103b8565b81146103d657600080fd5b50565b6000815190506103e8816103c2565b92915050565b600060208284031215610404576104036103b3565b5b6000610412848285016103d9565b91505092915050565b600081519050919050565b7f4e487b7100000000000000000000000000000000000000000000000000000000600052604160045260246000fd5b7f4e487b7100000000000000000000000000000000000000000000000000000000600052602260045260246000fd5b6000600282049050600182168061049c57607f821691505b6020821081036104af576104ae610455565b5b50919050565b60008190508160005260206000209050919050565b60006020601f8301049050919050565b600082821b905092915050565b6000600883026105177fffffffffffffffffffffffffffffffffffffffffffffffffffffffffffffffff826104da565b61052186836104da565b95508019841693508086168417925050509392505050565b6000819050919050565b600061055e610559610554846103b8565b610539565b6103b8565b9050919050565b6000819050919050565b61057883610543565b61058c61058482610565565b8484546104e7565b825550505050565b600090565b6105a1610594565b6105ac81848461056f565b505050565b5b818110156105d0576105c5600082610599565b6001810190506105b2565b5050565b601f821115610615576105e6816104b5565b6105ef846104ca565b810160208510156105fe578190505b61061261060a856104ca565b8301826105b1565b50505b505050565b600082821c905092915050565b60006106386000198460080261061a565b1980831691505092915050565b60006106518383610627565b9150826002028217905092915050565b61066a8261041b565b67ffffffffffffffff81111561068357610682610426565b5b61068d8254610484565b6106988282856105d4565b600060209050601f8311600181146106cb57600084156106b9578287015190505b6106c38582610645565b86555061072b565b601f1984166106d9866104b5565b60005b82811015610701578489015182556001820191506020850194506020810190506106dc565b8683101561071e578489015161071a601f891682610627565b8355505b6001600288020188555050505b505050505050565b7f4e487b7100000000000000000000000000000000000000000000000000000000600052601160045260246000fd5b60008160011c9050919050565b6000808291508390505b60018511156107b95780860481111561079557610794610733565b5b60018516156107a45780820291505b80810290506107b285610762565b9450610779565b94509492505050565b6000826107d2576001905061088e565b816107e0576000905061088e565b81600181146107f657600281146108005761082f565b600191505061088e565b60ff84111561081257610811610733565b5b8360020a91508482111561082957610828610733565b5b5061088e565b5060208310610133831016604e8410600b84101617156108645782820a90508381111561085f5761085e610733565b5b61088e565b610871848484600161076f565b9250905081840481111561088857610887610733565b5b81810290505b9392505050565b60006108a0826103b8565b91506108ab836103b8565b92506108d87fffffffffffffffffffffffffffffffffffffffffffffffffffffffffffffffff84846107c2565b905092915050565b60006108eb826103b8565b91506108f6836103b8565b9250828202610904816103b8565b9150828204841483151761091b5761091a610733565b5b5092915050565b600073ffffffffffffffffffffffffffffffffffffffff82169050919050565b600061094d82610922565b9050919050565b61095d81610942565b82525050565b60006020820190506109786000830184610954565b92915050565b6000610989826103b8565b9150610994836103b8565b92508282019050808211156109ac576109ab610733565b5b92915050565b6109bb816103b8565b82525050565b60006060820190506109d66000830186610954565b6109e360208301856109b2565b6109f060408301846109b2565b949350505050565b6000602082019050610a0d60008301846109b2565b92915050565b610fd080610a226000396000f3fe608060405234801561001057600080fd5b506004361061009e5760003560e01c806370a082311161006657806370a082311461015d57806395d89b411461018d578063a9059cbb146101ab578063dd62ed3e146101db578063f15da7291461020b5761009e565b806306fdde03146100a3578063095ea7b3146100c157806318160ddd146100f157806323b872dd1461010f578063313ce5671461013f575b600080fd5b6100ab610227565b6040516100b89190610b0d565b60405180910390f35b6100db60048036038101906100d69190610bcd565b6102b9565b6040516100e89190610c28565b60405180910390f35b6100f96102dc565b6040516101069190610c52565b60405180910390f35b61012960048036038101906101249190610c6d565b6102e6565b6040516101369190610c28565b60405180910390f35b610147610315565b6040516101549190610cdc565b60405180910390f35b61017760048036038101906101729190610cf7565b61031e565b6040516101849190610c52565b60405180910390f35b610195610366565b6040516101a29190610b0d565b60405180910390f35b6101c560048036038101906101c09190610bcd565b6103f8565b6040516101d29190610c28565b60405180910390f35b6101f560048036038101906101f09190610d24565b61041b565b6040516102029190610c52565b60405180910390f35b61022560048036038101906102209190610dc9565b6104a2565b005b60606003805461023690610e45565b80601f016020809104026020016040519081016040528092919081815260200182805461026290610e45565b80156102af5780601f10610284576101008083540402835291602001916102af565b820191906000526020600020905b81548152906001019060200180831161029257829003601f168201915b5050505050905090565b6000806102c46104df565b90506102d18185856104e7565b600191505092915050565b6000600254905090565b6000806102f16104df565b90506102fe8582856104f9565b61030985858561058d565b60019150509392505050565b60006012905090565b60008060008373ffffffffffffffffffffffffffffffffffffffff1673ffffffffffffffffffffffffffffffffffffffff168152602001908152602001600020549050919050565b60606004805461037590610e45565b80601f01602080910402602001604051908101604052809291908181526020018280546103a190610e45565b80156103ee5780601f106103c3576101008083540402835291602001916103ee565b820191906000526020600020905b8154815290600101906020018083116103d157829003601f168201915b5050505050905090565b6000806104036104df565b905061041081858561058d565b600191505092915050565b6000600160008473ffffffffffffffffffffffffffffffffffffffff1673ffffffffffffffffffffffffffffffffffffffff16815260200190815260200160002060008373ffffffffffffffffffffffffffffffffffffffff1673ffffffffffffffffffffffffffffffffffffffff16815260200190815260200160002054905092915050565b7fdb84d7c006c4de68f9c0bd50b8b81ed31f29ebeec325c872d36445c6565d757c82826040516104d3929190610eb2565b60405180910390a15050565b600033905090565b6104f48383836001610681565b505050565b6000610505848461041b565b90507fffffffffffffffffffffffffffffffffffffffffffffffffffffffffffffffff81146105875781811015610577578281836040517ffb8f41b200000000000000000000000000000000000000000000000000000000815260040161056e93929190610ee5565b60405180910390fd5b61058684848484036000610681565b5b50505050565b600073ffffffffffffffffffffffffffffffffffffffff168373ffffffffffffffffffffffffffffffffffffffff16036105ff5760006040517f96c6fd1e0000000000000000000000000000000000000000000000000000000081526004016105f69190610f1c565b60405180910390fd5b600073ffffffffffffffffffffffffffffffffffffffff168273ffffffffffffffffffffffffffffffffffffffff16036106715760006040517fec442f050000000000000000000000000000000000000000000000000000000081526004016106689190610f1c565b60405180910390fd5b61067c838383610858565b505050565b600073ffffffffffffffffffffffffffffffffffffffff168473ffffffffffffffffffffffffffffffffffffffff16036106f35760006040517fe602df050000000000000000000000000000000000000000000000000000000081526004016106ea9190610f1c565b60405180910390fd5b600073ffffffffffffffffffffffffffffffffffffffff168373ffffffffffffffffffffffffffffffffffffffff16036107655760006040517f94280d6200000000000000000000000000000000000000000000000000000000815260040161075c9190610f1c565b60405180910390fd5b81600160008673ffffffffffffffffffffffffffffffffffffffff1673ffffffffffffffffffffffffffffffffffffffff16815260200190815260200160002060008573ffffffffffffffffffffffffffffffffffffffff1673ffffffffffffffffffffffffffffffffffffffff168152602001908152602001600020819055508015610852578273ffffffffffffffffffffffffffffffffffffffff168473ffffffffffffffffffffffffffffffffffffffff167f8c5be1e5ebec7d5bd14f71427d1e84f3dd0314c0f7b2291e5b200ac8c7c3b925846040516108499190610c52565b60405180910390a35b50505050565b600073ffffffffffffffffffffffffffffffffffffffff168373ffffffffffffffffffffffffffffffffffffffff16036108aa57806002600082825461089e9190610f66565b9250508190555061097d565b60008060008573ffffffffffffffffffffffffffffffffffffffff1673ffffffffffffffffffffffffffffffffffffffff16815260200190815260200160002054905081811015610936578381836040517fe450d38c00000000000000000000000000000000000000000000000000000000815260040161092d93929190610ee5565b60405180910390fd5b8181036000808673ffffffffffffffffffffffffffffffffffffffff1673ffffffffffffffffffffffffffffffffffffffff16815260200190815260200160002081905550505b600073ffffffffffffffffffffffffffffffffffffffff168273ffffffffffffffffffffffffffffffffffffffff16036109c65780600260008282540392505081905550610a13565b806000808473ffffffffffffffffffffffffffffffffffffffff1673ffffffffffffffffffffffffffffffffffffffff168152602001908152602001600020600082825401925050819055505b8173ffffffffffffffffffffffffffffffffffffffff168373ffffffffffffffffffffffffffffffffffffffff167fddf252ad1be2c89b69c2b068fc378daa952ba7f163c4a11628f55a4df523b3ef83604051610a709190610c52565b60405180910390a3505050565b600081519050919050565b600082825260208201905092915050565b60005b83811015610ab7578082015181840152602081019050610a9c565b60008484015250505050565b6000601f19601f8301169050919050565b6000610adf82610a7d565b610ae98185610a88565b9350610af9818560208601610a99565b610b0281610ac3565b840191505092915050565b60006020820190508181036000830152610b278184610ad4565b905092915050565b600080fd5b600080fd5b600073ffffffffffffffffffffffffffffffffffffffff82169050919050565b6000610b6482610b39565b9050919050565b610b7481610b59565b8114610b7f57600080fd5b50565b600081359050610b9181610b6b565b92915050565b6000819050919050565b610baa81610b97565b8114610bb557600080fd5b50565b600081359050610bc781610ba1565b92915050565b60008060408385031215610be457610be3610b2f565b5b6000610bf285828601610b82565b9250506020610c0385828601610bb8565b9150509250929050565b60008115159050919050565b610c2281610c0d565b82525050565b6000602082019050610c3d6000830184610c19565b92915050565b610c4c81610b97565b82525050565b6000602082019050610c676000830184610c43565b92915050565b600080600060608486031215610c8657610c85610b2f565b5b6000610c9486828701610b82565b9350506020610ca586828701610b82565b9250506040610cb686828701610bb8565b9150509250925092565b600060ff82169050919050565b610cd681610cc0565b82525050565b6000602082019050610cf16000830184610ccd565b92915050565b600060208284031215610d0d57610d0c610b2f565b5b6000610d1b84828501610b82565b91505092915050565b60008060408385031215610d3b57610d3a610b2f565b5b6000610d4985828601610b82565b9250506020610d5a85828601610b82565b9150509250929050565b600080fd5b600080fd5b600080fd5b60008083601f840112610d8957610d88610d64565b5b8235905067ffffffffffffffff811115610da657610da5610d69565b5b602083019150836001820283011115610dc257610dc1610d6e565b5b9250929050565b60008060208385031215610de057610ddf610b2f565b5b600083013567ffffffffffffffff811115610dfe57610dfd610b34565b5b610e0a85828601610d73565b92509250509250929050565b7f4e487b7100000000000000000000000000000000000000000000000000000000600052602260045260246000fd5b60006002820490506001821680610e5d57607f821691505b602082108103610e7057610e6f610e16565b5b50919050565b82818337600083830152505050565b6000610e918385610a88565b9350610e9e838584610e76565b610ea783610ac3565b840190509392505050565b60006020820190508181036000830152610ecd818486610e85565b90509392505050565b610edf81610b59565b82525050565b6000606082019050610efa6000830186610ed6565b610f076020830185610c43565b610f146040830184610c43565b949350505050565b6000602082019050610f316000830184610ed6565b92915050565b7f4e487b7100000000000000000000000000000000000000000000000000000000600052601160045260246000fd5b6000610f7182610b97565b9150610f7c83610b97565b9250828201905080821115610f9457610f93610f37565b5b9291505056fea26469706673582212203d64f3c70d4f989f5fd0ee9cdb5e1fbd1f9ff3a4a3db0bba7236f700f5453a3664736f6c634300081b0033",
  "linkReferences": {},
  "deployedLinkReferences": {}
}